{
  "contractName": "Dex",
  "abi": [
    {
      "anonymous": false,
      "inputs": [
        {
          "indexed": true,
          "internalType": "address",
          "name": "previousOwner",
          "type": "address"
        },
        {
          "indexed": true,
          "internalType": "address",
          "name": "newOwner",
          "type": "address"
        }
      ],
      "name": "OwnershipTransferred",
      "type": "event"
    },
    {
      "inputs": [
        {
          "internalType": "bytes32",
          "name": "ticker",
          "type": "bytes32"
        },
        {
          "internalType": "address",
          "name": "tokenAddress",
          "type": "address"
        }
      ],
      "name": "addToken",
      "outputs": [],
      "stateMutability": "nonpayable",
      "type": "function"
    },
    {
      "inputs": [
        {
          "internalType": "address",
          "name": "",
          "type": "address"
        },
        {
          "internalType": "bytes32",
          "name": "",
          "type": "bytes32"
        }
      ],
      "name": "balances",
      "outputs": [
        {
          "internalType": "uint256",
          "name": "",
          "type": "uint256"
        }
      ],
      "stateMutability": "view",
      "type": "function",
      "constant": true
    },
    {
      "inputs": [
        {
          "internalType": "uint256",
          "name": "amount",
          "type": "uint256"
        },
        {
          "internalType": "bytes32",
          "name": "ticker",
          "type": "bytes32"
        }
      ],
      "name": "deposit",
      "outputs": [],
      "stateMutability": "nonpayable",
      "type": "function"
    },
    {
      "inputs": [
        {
          "internalType": "bytes32",
          "name": "",
          "type": "bytes32"
        },
        {
          "internalType": "uint256",
          "name": "",
          "type": "uint256"
        },
        {
          "internalType": "uint256",
          "name": "",
          "type": "uint256"
        }
      ],
      "name": "orderBook",
      "outputs": [
        {
          "internalType": "uint256",
          "name": "id",
          "type": "uint256"
        },
        {
          "internalType": "address",
          "name": "trader",
          "type": "address"
        },
        {
          "internalType": "bool",
          "name": "buyOrder",
          "type": "bool"
        },
        {
          "internalType": "bytes32",
          "name": "ticker",
          "type": "bytes32"
        },
        {
          "internalType": "uint256",
          "name": "amount",
          "type": "uint256"
        },
        {
          "internalType": "uint256",
          "name": "price",
          "type": "uint256"
        }
      ],
      "stateMutability": "view",
      "type": "function",
      "constant": true
    },
    {
      "inputs": [],
      "name": "owner",
      "outputs": [
        {
          "internalType": "address",
          "name": "",
          "type": "address"
        }
      ],
      "stateMutability": "view",
      "type": "function",
      "constant": true
    },
    {
      "inputs": [],
      "name": "renounceOwnership",
      "outputs": [],
      "stateMutability": "nonpayable",
      "type": "function"
    },
    {
      "inputs": [
        {
          "internalType": "uint256",
          "name": "",
          "type": "uint256"
        }
      ],
      "name": "tokenList",
      "outputs": [
        {
          "internalType": "bytes32",
          "name": "",
          "type": "bytes32"
        }
      ],
      "stateMutability": "view",
      "type": "function",
      "constant": true
    },
    {
      "inputs": [
        {
          "internalType": "bytes32",
          "name": "",
          "type": "bytes32"
        }
      ],
      "name": "tokenMapping",
      "outputs": [
        {
          "internalType": "bytes32",
          "name": "ticker",
          "type": "bytes32"
        },
        {
          "internalType": "address",
          "name": "tokenAddress",
          "type": "address"
        }
      ],
      "stateMutability": "view",
      "type": "function",
      "constant": true
    },
    {
      "inputs": [
        {
          "internalType": "address",
          "name": "newOwner",
          "type": "address"
        }
      ],
      "name": "transferOwnership",
      "outputs": [],
      "stateMutability": "nonpayable",
      "type": "function"
    },
    {
      "inputs": [
        {
          "internalType": "uint256",
          "name": "amount",
          "type": "uint256"
        },
        {
          "internalType": "bytes32",
          "name": "ticker",
          "type": "bytes32"
        }
      ],
      "name": "withdraw",
      "outputs": [],
      "stateMutability": "nonpayable",
      "type": "function"
    },
    {
      "inputs": [
        {
          "internalType": "bytes32",
          "name": "ticker",
          "type": "bytes32"
        },
        {
          "internalType": "enum Dex.Side",
          "name": "side",
          "type": "uint8"
        }
      ],
      "name": "getOrderBook",
      "outputs": [
        {
          "components": [
            {
              "internalType": "uint256",
              "name": "id",
              "type": "uint256"
            },
            {
              "internalType": "address",
              "name": "trader",
              "type": "address"
            },
            {
              "internalType": "bool",
              "name": "buyOrder",
              "type": "bool"
            },
            {
              "internalType": "bytes32",
              "name": "ticker",
              "type": "bytes32"
            },
            {
              "internalType": "uint256",
              "name": "amount",
              "type": "uint256"
            },
            {
              "internalType": "uint256",
              "name": "price",
              "type": "uint256"
            }
          ],
          "internalType": "struct Dex.Order[]",
          "name": "",
          "type": "tuple[]"
        }
      ],
      "stateMutability": "view",
      "type": "function",
      "constant": true
    }
  ],
  "bytecode": "0x608060405234801561001057600080fd5b5060006100216100c460201b60201c565b9050806000806101000a81548173ffffffffffffffffffffffffffffffffffffffff021916908373ffffffffffffffffffffffffffffffffffffffff1602179055508073ffffffffffffffffffffffffffffffffffffffff16600073ffffffffffffffffffffffffffffffffffffffff167f8be0079c531659141344cd1fd0a4f28419497f9722a3daafe3b4186f6b6457e060405160405180910390a3506100cc565b600033905090565b6116b1806100db6000396000f3fe608060405234801561001057600080fd5b50600436106100a95760003560e01c80639776aacf116100715780639776aacf1461016c5780639ead722214610188578063a8d2021a146101b8578063ba58ea68146101d4578063c9630cb014610204578063f2fde38b14610220576100a9565b80630bb431b6146100ae5780631f14df69146100e3578063667cb4ba14610113578063715018a6146101445780638da5cb5b1461014e575b600080fd5b6100c860048036038101906100c39190610fca565b61023c565b6040516100da969594939291906114dc565b60405180910390f35b6100fd60048036038101906100f89190610ec4565b6102cc565b60405161010a91906114c1565b60405180910390f35b61012d60048036038101906101289190610f29565b6102f1565b60405161013b929190611418565b60405180910390f35b61014c610335565b005b61015661046f565b6040516101639190611345565b60405180910390f35b61018660048036038101906101819190610f52565b610498565b005b6101a2600480360381019061019d9190611019565b6105d3565b6040516101af91906113fd565b60405180910390f35b6101d260048036038101906101cd919061106b565b6105f4565b005b6101ee60048036038101906101e99190610f8e565b6107e3565b6040516101fb91906113db565b60405180910390f35b61021e6004803603810190610219919061106b565b61090b565b005b61023a60048036038101906102359190610e9b565b610bc7565b005b6004602052826000526040600020602052816000526040600020818154811061026157fe5b906000526020600020906005020160009250925050508060000154908060010160009054906101000a900473ffffffffffffffffffffffffffffffffffffffff16908060010160149054906101000a900460ff16908060020154908060030154908060040154905086565b6003602052816000526040600020602052806000526040600020600091509150505481565b60016020528060005260406000206000915090508060000154908060010160009054906101000a900473ffffffffffffffffffffffffffffffffffffffff16905082565b61033d610d70565b73ffffffffffffffffffffffffffffffffffffffff1661035b61046f565b73ffffffffffffffffffffffffffffffffffffffff16146103b1576040517f08c379a00000000000000000000000000000000000000000000000000000000081526004016103a8906114a1565b60405180910390fd5b600073ffffffffffffffffffffffffffffffffffffffff1660008054906101000a900473ffffffffffffffffffffffffffffffffffffffff1673ffffffffffffffffffffffffffffffffffffffff167f8be0079c531659141344cd1fd0a4f28419497f9722a3daafe3b4186f6b6457e060405160405180910390a360008060006101000a81548173ffffffffffffffffffffffffffffffffffffffff021916908373ffffffffffffffffffffffffffffffffffffffff160217905550565b60008060009054906101000a900473ffffffffffffffffffffffffffffffffffffffff16905090565b6104a0610d70565b73ffffffffffffffffffffffffffffffffffffffff166104be61046f565b73ffffffffffffffffffffffffffffffffffffffff1614610514576040517f08c379a000000000000000000000000000000000000000000000000000000000815260040161050b906114a1565b60405180910390fd5b60405180604001604052808381526020018273ffffffffffffffffffffffffffffffffffffffff16815250600160008481526020019081526020016000206000820151816000015560208201518160010160006101000a81548173ffffffffffffffffffffffffffffffffffffffff021916908373ffffffffffffffffffffffffffffffffffffffff16021790555090505060028290806001815401808255809150506001900390600052602060002001600090919091909150555050565b600281815481106105e057fe5b906000526020600020016000915090505481565b600073ffffffffffffffffffffffffffffffffffffffff166001600083815260200190815260200160002060010160009054906101000a900473ffffffffffffffffffffffffffffffffffffffff1673ffffffffffffffffffffffffffffffffffffffff16141561066457600080fd5b6106c782600360003373ffffffffffffffffffffffffffffffffffffffff1673ffffffffffffffffffffffffffffffffffffffff168152602001908152602001600020600084815260200190815260200160002054610d7890919063ffffffff16565b600360003373ffffffffffffffffffffffffffffffffffffffff1673ffffffffffffffffffffffffffffffffffffffff1681526020019081526020016000206000838152602001908152602001600020819055506001600082815260200190815260200160002060010160009054906101000a900473ffffffffffffffffffffffffffffffffffffffff1673ffffffffffffffffffffffffffffffffffffffff1663a9059cbb33846040518363ffffffff1660e01b815260040161078c9291906113b2565b602060405180830381600087803b1580156107a657600080fd5b505af11580156107ba573d6000803e3d6000fd5b505050506040513d601f19601f820116820180604052508101906107de9190610f00565b505050565b606060046000848152602001908152602001600020600083600181111561080657fe5b8152602001908152602001600020805480602002602001604051908101604052809291908181526020016000905b828210156108ff57838290600052602060002090600502016040518060c0016040529081600082015481526020016001820160009054906101000a900473ffffffffffffffffffffffffffffffffffffffff1673ffffffffffffffffffffffffffffffffffffffff1673ffffffffffffffffffffffffffffffffffffffff1681526020016001820160149054906101000a900460ff16151515158152602001600282015481526020016003820154815260200160048201548152505081526020019060010190610834565b50505050905092915050565b600073ffffffffffffffffffffffffffffffffffffffff166001600083815260200190815260200160002060010160009054906101000a900473ffffffffffffffffffffffffffffffffffffffff1673ffffffffffffffffffffffffffffffffffffffff16141561097b57600080fd5b816001600083815260200190815260200160002060010160009054906101000a900473ffffffffffffffffffffffffffffffffffffffff1673ffffffffffffffffffffffffffffffffffffffff166370a08231336040518263ffffffff1660e01b81526004016109eb9190611360565b60206040518083038186803b158015610a0357600080fd5b505afa158015610a17573d6000803e3d6000fd5b505050506040513d601f19601f82011682018060405250810190610a3b9190611042565b1015610a4657600080fd5b610aa982600360003373ffffffffffffffffffffffffffffffffffffffff1673ffffffffffffffffffffffffffffffffffffffff168152602001908152602001600020600084815260200190815260200160002054610dc890919063ffffffff16565b600360003373ffffffffffffffffffffffffffffffffffffffff1673ffffffffffffffffffffffffffffffffffffffff1681526020019081526020016000206000838152602001908152602001600020819055506001600082815260200190815260200160002060010160009054906101000a900473ffffffffffffffffffffffffffffffffffffffff1673ffffffffffffffffffffffffffffffffffffffff166323b872dd3330856040518463ffffffff1660e01b8152600401610b709392919061137b565b602060405180830381600087803b158015610b8a57600080fd5b505af1158015610b9e573d6000803e3d6000fd5b505050506040513d601f19601f82011682018060405250810190610bc29190610f00565b505050565b610bcf610d70565b73ffffffffffffffffffffffffffffffffffffffff16610bed61046f565b73ffffffffffffffffffffffffffffffffffffffff1614610c43576040517f08c379a0000000000000000000000000000000000000000000000000000000008152600401610c3a906114a1565b60405180910390fd5b600073ffffffffffffffffffffffffffffffffffffffff168173ffffffffffffffffffffffffffffffffffffffff161415610cb3576040517f08c379a0000000000000000000000000000000000000000000000000000000008152600401610caa90611441565b60405180910390fd5b8073ffffffffffffffffffffffffffffffffffffffff1660008054906101000a900473ffffffffffffffffffffffffffffffffffffffff1673ffffffffffffffffffffffffffffffffffffffff167f8be0079c531659141344cd1fd0a4f28419497f9722a3daafe3b4186f6b6457e060405160405180910390a3806000806101000a81548173ffffffffffffffffffffffffffffffffffffffff021916908373ffffffffffffffffffffffffffffffffffffffff16021790555050565b600033905090565b600082821115610dbd576040517f08c379a0000000000000000000000000000000000000000000000000000000008152600401610db490611481565b60405180910390fd5b818303905092915050565b600080828401905083811015610e13576040517f08c379a0000000000000000000000000000000000000000000000000000000008152600401610e0a90611461565b60405180910390fd5b8091505092915050565b600081359050610e2c8161160f565b92915050565b600081519050610e4181611626565b92915050565b600081359050610e568161163d565b92915050565b600081359050610e6b81611654565b92915050565b600081359050610e8081611664565b92915050565b600081519050610e9581611664565b92915050565b600060208284031215610ead57600080fd5b6000610ebb84828501610e1d565b91505092915050565b60008060408385031215610ed757600080fd5b6000610ee585828601610e1d565b9250506020610ef685828601610e47565b9150509250929050565b600060208284031215610f1257600080fd5b6000610f2084828501610e32565b91505092915050565b600060208284031215610f3b57600080fd5b6000610f4984828501610e47565b91505092915050565b60008060408385031215610f6557600080fd5b6000610f7385828601610e47565b9250506020610f8485828601610e1d565b9150509250929050565b60008060408385031215610fa157600080fd5b6000610faf85828601610e47565b9250506020610fc085828601610e5c565b9150509250929050565b600080600060608486031215610fdf57600080fd5b6000610fed86828701610e47565b9350506020610ffe86828701610e71565b925050604061100f86828701610e71565b9150509250925092565b60006020828403121561102b57600080fd5b600061103984828501610e71565b91505092915050565b60006020828403121561105457600080fd5b600061106284828501610e86565b91505092915050565b6000806040838503121561107e57600080fd5b600061108c85828601610e71565b925050602061109d85828601610e47565b9150509250929050565b60006110b383836112ac565b60c08301905092915050565b6110c8816115d9565b82525050565b6110d781611587565b82525050565b6110e681611587565b82525050565b60006110f78261154d565b6111018185611565565b935061110c8361153d565b8060005b8381101561113d57815161112488826110a7565b975061112f83611558565b925050600181019050611110565b5085935050505092915050565b61115381611599565b82525050565b61116281611599565b82525050565b611171816115a5565b82525050565b611180816115a5565b82525050565b6000611193602683611576565b91507f4f776e61626c653a206e6577206f776e657220697320746865207a65726f206160008301527f64647265737300000000000000000000000000000000000000000000000000006020830152604082019050919050565b60006111f9601b83611576565b91507f536166654d6174683a206164646974696f6e206f766572666c6f7700000000006000830152602082019050919050565b6000611239601e83611576565b91507f536166654d6174683a207375627472616374696f6e206f766572666c6f7700006000830152602082019050919050565b6000611279602083611576565b91507f4f776e61626c653a2063616c6c6572206973206e6f7420746865206f776e65726000830152602082019050919050565b60c0820160008201516112c26000850182611327565b5060208201516112d560208501826110ce565b5060408201516112e8604085018261114a565b5060608201516112fb6060850182611168565b50608082015161130e6080850182611327565b5060a082015161132160a0850182611327565b50505050565b611330816115cf565b82525050565b61133f816115cf565b82525050565b600060208201905061135a60008301846110dd565b92915050565b600060208201905061137560008301846110bf565b92915050565b600060608201905061139060008301866110bf565b61139d60208301856110dd565b6113aa6040830184611336565b949350505050565b60006040820190506113c760008301856110bf565b6113d46020830184611336565b9392505050565b600060208201905081810360008301526113f581846110ec565b905092915050565b60006020820190506114126000830184611177565b92915050565b600060408201905061142d6000830185611177565b61143a60208301846110dd565b9392505050565b6000602082019050818103600083015261145a81611186565b9050919050565b6000602082019050818103600083015261147a816111ec565b9050919050565b6000602082019050818103600083015261149a8161122c565b9050919050565b600060208201905081810360008301526114ba8161126c565b9050919050565b60006020820190506114d66000830184611336565b92915050565b600060c0820190506114f16000830189611336565b6114fe60208301886110dd565b61150b6040830187611159565b6115186060830186611177565b6115256080830185611336565b61153260a0830184611336565b979650505050505050565b6000819050602082019050919050565b600081519050919050565b6000602082019050919050565b600082825260208201905092915050565b600082825260208201905092915050565b6000611592826115af565b9050919050565b60008115159050919050565b6000819050919050565b600073ffffffffffffffffffffffffffffffffffffffff82169050919050565b6000819050919050565b60006115e4826115eb565b9050919050565b60006115f6826115fd565b9050919050565b6000611608826115af565b9050919050565b61161881611587565b811461162357600080fd5b50565b61162f81611599565b811461163a57600080fd5b50565b611646816115a5565b811461165157600080fd5b50565b6002811061166157600080fd5b50565b61166d816115cf565b811461167857600080fd5b5056fea264697066735822122002dc49b8d127da0e59fc909330c72a0f36b50347eb0d3c59e4c16d7c6dcf3d7a64736f6c63430007000033",
  "immutableReferences": {},
  "source": "// SPDX-License-Identifier: MIT\r\npragma solidity >= 0.6.0 < 0.8.0;\r\npragma experimental ABIEncoderV2;\r\n\r\nimport \"./wallet.sol\";\r\n\r\ncontract Dex is Wallet {\r\n\r\n    enum Side {\r\n        BUY,\r\n        SELL   \r\n    }\r\n    \r\n    struct Order {\r\n        uint id;\r\n        address trader;\r\n        bool buyOrder;\r\n        bytes32 ticker;\r\n        uint amount;\r\n        uint price;\r\n    }\r\n\r\n    mapping(bytes32 => mapping(uint => Order[])) public orderBook;\r\n\r\n    function getOrderBook(bytes32 ticker, Side side) view public returns(Order[] memory) {\r\n        return orderBook[ticker][uint(side)];\r\n    }\r\n\r\n    //function createLimitOrder() public {\r\n\r\n   // }\r\n}\r\n",
  "sourcePath": "C:/Users/ub3rm/Course/ethereum201/DEX/contracts/dex.sol",
  "compiler": {
    "name": "solc",
    "version": "0.7.0+commit.9e61f92b.Emscripten.clang"
  },
  "schemaVersion": "3.3.4",
  "updatedAt": "2021-03-20T01:12:36.787Z",
  "networkType": "ethereum",
  "devdoc": {
    "kind": "dev",
    "methods": {
      "owner()": {
        "details": "Returns the address of the current owner."
      },
      "renounceOwnership()": {
        "details": "Leaves the contract without owner. It will not be possible to call `onlyOwner` functions anymore. Can only be called by the current owner. NOTE: Renouncing ownership will leave the contract without an owner, thereby removing any functionality that is only available to the owner."
      },
      "transferOwnership(address)": {
        "details": "Transfers ownership of the contract to a new account (`newOwner`). Can only be called by the current owner."
      }
    },
    "version": 1
  },
  "userdoc": {
    "kind": "user",
    "methods": {},
    "version": 1
  }
}