{
  "contractName": "Dex",
  "abi": [
    {
      "anonymous": false,
      "inputs": [
        {
          "indexed": true,
          "internalType": "address",
          "name": "previousOwner",
          "type": "address"
        },
        {
          "indexed": true,
          "internalType": "address",
          "name": "newOwner",
          "type": "address"
        }
      ],
      "name": "OwnershipTransferred",
      "type": "event"
    },
    {
      "inputs": [
        {
          "internalType": "bytes32",
          "name": "ticker",
          "type": "bytes32"
        },
        {
          "internalType": "address",
          "name": "tokenAddress",
          "type": "address"
        }
      ],
      "name": "addToken",
      "outputs": [],
      "stateMutability": "nonpayable",
      "type": "function"
    },
    {
      "inputs": [
        {
          "internalType": "address",
          "name": "",
          "type": "address"
        },
        {
          "internalType": "bytes32",
          "name": "",
          "type": "bytes32"
        }
      ],
      "name": "balances",
      "outputs": [
        {
          "internalType": "uint256",
          "name": "",
          "type": "uint256"
        }
      ],
      "stateMutability": "view",
      "type": "function"
    },
    {
      "inputs": [
        {
          "internalType": "uint256",
          "name": "amount",
          "type": "uint256"
        },
        {
          "internalType": "bytes32",
          "name": "ticker",
          "type": "bytes32"
        }
      ],
      "name": "deposit",
      "outputs": [],
      "stateMutability": "nonpayable",
      "type": "function"
    },
    {
      "inputs": [],
      "name": "nextOrderID",
      "outputs": [
        {
          "internalType": "uint256",
          "name": "",
          "type": "uint256"
        }
      ],
      "stateMutability": "view",
      "type": "function"
    },
    {
      "inputs": [
        {
          "internalType": "bytes32",
          "name": "",
          "type": "bytes32"
        },
        {
          "internalType": "uint256",
          "name": "",
          "type": "uint256"
        },
        {
          "internalType": "uint256",
          "name": "",
          "type": "uint256"
        }
      ],
      "name": "orderBook",
      "outputs": [
        {
          "internalType": "uint256",
          "name": "id",
          "type": "uint256"
        },
        {
          "internalType": "address",
          "name": "trader",
          "type": "address"
        },
        {
          "internalType": "enum Dex.Side",
          "name": "side",
          "type": "uint8"
        },
        {
          "internalType": "bytes32",
          "name": "ticker",
          "type": "bytes32"
        },
        {
          "internalType": "uint256",
          "name": "amount",
          "type": "uint256"
        },
        {
          "internalType": "uint256",
          "name": "price",
          "type": "uint256"
        }
      ],
      "stateMutability": "view",
      "type": "function"
    },
    {
      "inputs": [],
      "name": "owner",
      "outputs": [
        {
          "internalType": "address",
          "name": "",
          "type": "address"
        }
      ],
      "stateMutability": "view",
      "type": "function"
    },
    {
      "inputs": [],
      "name": "renounceOwnership",
      "outputs": [],
      "stateMutability": "nonpayable",
      "type": "function"
    },
    {
      "inputs": [
        {
          "internalType": "uint256",
          "name": "",
          "type": "uint256"
        }
      ],
      "name": "tokenList",
      "outputs": [
        {
          "internalType": "bytes32",
          "name": "",
          "type": "bytes32"
        }
      ],
      "stateMutability": "view",
      "type": "function"
    },
    {
      "inputs": [
        {
          "internalType": "bytes32",
          "name": "",
          "type": "bytes32"
        }
      ],
      "name": "tokenMapping",
      "outputs": [
        {
          "internalType": "bytes32",
          "name": "ticker",
          "type": "bytes32"
        },
        {
          "internalType": "address",
          "name": "tokenAddress",
          "type": "address"
        }
      ],
      "stateMutability": "view",
      "type": "function"
    },
    {
      "inputs": [
        {
          "internalType": "address",
          "name": "newOwner",
          "type": "address"
        }
      ],
      "name": "transferOwnership",
      "outputs": [],
      "stateMutability": "nonpayable",
      "type": "function"
    },
    {
      "inputs": [
        {
          "internalType": "uint256",
          "name": "amount",
          "type": "uint256"
        },
        {
          "internalType": "bytes32",
          "name": "ticker",
          "type": "bytes32"
        }
      ],
      "name": "withdraw",
      "outputs": [],
      "stateMutability": "nonpayable",
      "type": "function"
    },
    {
      "inputs": [
        {
          "internalType": "bytes32",
          "name": "ticker",
          "type": "bytes32"
        },
        {
          "internalType": "enum Dex.Side",
          "name": "side",
          "type": "uint8"
        }
      ],
      "name": "getOrderBook",
      "outputs": [
        {
          "components": [
            {
              "internalType": "uint256",
              "name": "id",
              "type": "uint256"
            },
            {
              "internalType": "address",
              "name": "trader",
              "type": "address"
            },
            {
              "internalType": "enum Dex.Side",
              "name": "side",
              "type": "uint8"
            },
            {
              "internalType": "bytes32",
              "name": "ticker",
              "type": "bytes32"
            },
            {
              "internalType": "uint256",
              "name": "amount",
              "type": "uint256"
            },
            {
              "internalType": "uint256",
              "name": "price",
              "type": "uint256"
            }
          ],
          "internalType": "struct Dex.Order[]",
          "name": "",
          "type": "tuple[]"
        }
      ],
      "stateMutability": "view",
      "type": "function"
    },
    {
      "inputs": [
        {
          "internalType": "enum Dex.Side",
          "name": "side",
          "type": "uint8"
        },
        {
          "internalType": "bytes32",
          "name": "ticker",
          "type": "bytes32"
        },
        {
          "internalType": "uint256",
          "name": "amount",
          "type": "uint256"
        },
        {
          "internalType": "uint256",
          "name": "price",
          "type": "uint256"
        }
      ],
      "name": "createLimitOrder",
      "outputs": [],
      "stateMutability": "nonpayable",
      "type": "function"
    }
  ],
  "bytecode": "0x6080604052600060045534801561001557600080fd5b5060006100266100c960201b60201c565b9050806000806101000a81548173ffffffffffffffffffffffffffffffffffffffff021916908373ffffffffffffffffffffffffffffffffffffffff1602179055508073ffffffffffffffffffffffffffffffffffffffff16600073ffffffffffffffffffffffffffffffffffffffff167f8be0079c531659141344cd1fd0a4f28419497f9722a3daafe3b4186f6b6457e060405160405180910390a3506100d1565b600033905090565b611b44806100e06000396000f3fe608060405234801561001057600080fd5b50600436106100cf5760003560e01c80639776aacf1161008c578063ba58ea6811610066578063ba58ea6814610216578063c9630cb014610246578063f2fde38b14610262578063f47a0acc1461027e576100cf565b80639776aacf146101ae5780639ead7222146101ca578063a8d2021a146101fa576100cf565b80630bb431b6146100d45780631f14df6914610109578063667cb4ba146101395780636f3b62f91461016a578063715018a6146101865780638da5cb5b14610190575b600080fd5b6100ee60048036038101906100e99190611342565b61029c565b6040516101009695949392919061193d565b60405180910390f35b610123600480360381019061011e919061123c565b61032c565b6040516101309190611922565b60405180910390f35b610153600480360381019061014e91906112a1565b610351565b604051610161929190611859565b60405180910390f35b610184600480360381019061017f9190611391565b610395565b005b61018e610625565b005b61019861075f565b6040516101a59190611786565b60405180910390f35b6101c860048036038101906101c391906112ca565b610788565b005b6101e460048036038101906101df91906113f4565b6108c3565b6040516101f1919061183e565b60405180910390f35b610214600480360381019061020f9190611446565b6108e4565b005b610230600480360381019061022b9190611306565b610ad3565b60405161023d919061181c565b60405180910390f35b610260600480360381019061025b9190611446565b610c0d565b005b61027c60048036038101906102779190611213565b610ec9565b005b610286611072565b6040516102939190611922565b60405180910390f35b600560205282600052604060002060205281600052604060002081815481106102c157fe5b906000526020600020906005020160009250925050508060000154908060010160009054906101000a900473ffffffffffffffffffffffffffffffffffffffff16908060010160149054906101000a900460ff16908060020154908060030154908060040154905086565b6003602052816000526040600020602052806000526040600020600091509150505481565b60016020528060005260406000206000915090508060000154908060010160009054906101000a900473ffffffffffffffffffffffffffffffffffffffff16905082565b600060018111156103a257fe5b8460018111156103ae57fe5b1415610448576103c7818361107890919063ffffffff16565b600360003373ffffffffffffffffffffffffffffffffffffffff1673ffffffffffffffffffffffffffffffffffffffff16815260200190815260200160002060007f4554480000000000000000000000000000000000000000000000000000000000815260200190815260200160002054101561044357600080fd5b6104c5565b60018081111561045457fe5b84600181111561046057fe5b14156104c45781600360003373ffffffffffffffffffffffffffffffffffffffff1673ffffffffffffffffffffffffffffffffffffffff16815260200190815260200160002060008581526020019081526020016000205410156104c357600080fd5b5b5b60006005600085815260200190815260200160002060008660018111156104e857fe5b81526020019081526020016000209050806040518060c0016040528060045481526020013373ffffffffffffffffffffffffffffffffffffffff16815260200187600181111561053457fe5b81526020018681526020018581526020018481525090806001815401808255809150506001900390600052602060002090600502016000909190919091506000820151816000015560208201518160010160006101000a81548173ffffffffffffffffffffffffffffffffffffffff021916908373ffffffffffffffffffffffffffffffffffffffff16021790555060408201518160010160146101000a81548160ff021916908360018111156105e757fe5b0217905550606082015181600201556080820151816003015560a0820151816004015550506004600081548092919060010191905055505050505050565b61062d6110e8565b73ffffffffffffffffffffffffffffffffffffffff1661064b61075f565b73ffffffffffffffffffffffffffffffffffffffff16146106a1576040517f08c379a000000000000000000000000000000000000000000000000000000000815260040161069890611902565b60405180910390fd5b600073ffffffffffffffffffffffffffffffffffffffff1660008054906101000a900473ffffffffffffffffffffffffffffffffffffffff1673ffffffffffffffffffffffffffffffffffffffff167f8be0079c531659141344cd1fd0a4f28419497f9722a3daafe3b4186f6b6457e060405160405180910390a360008060006101000a81548173ffffffffffffffffffffffffffffffffffffffff021916908373ffffffffffffffffffffffffffffffffffffffff160217905550565b60008060009054906101000a900473ffffffffffffffffffffffffffffffffffffffff16905090565b6107906110e8565b73ffffffffffffffffffffffffffffffffffffffff166107ae61075f565b73ffffffffffffffffffffffffffffffffffffffff1614610804576040517f08c379a00000000000000000000000000000000000000000000000000000000081526004016107fb90611902565b60405180910390fd5b60405180604001604052808381526020018273ffffffffffffffffffffffffffffffffffffffff16815250600160008481526020019081526020016000206000820151816000015560208201518160010160006101000a81548173ffffffffffffffffffffffffffffffffffffffff021916908373ffffffffffffffffffffffffffffffffffffffff16021790555090505060028290806001815401808255809150506001900390600052602060002001600090919091909150555050565b600281815481106108d057fe5b906000526020600020016000915090505481565b600073ffffffffffffffffffffffffffffffffffffffff166001600083815260200190815260200160002060010160009054906101000a900473ffffffffffffffffffffffffffffffffffffffff1673ffffffffffffffffffffffffffffffffffffffff16141561095457600080fd5b6109b782600360003373ffffffffffffffffffffffffffffffffffffffff1673ffffffffffffffffffffffffffffffffffffffff1681526020019081526020016000206000848152602001908152602001600020546110f090919063ffffffff16565b600360003373ffffffffffffffffffffffffffffffffffffffff1673ffffffffffffffffffffffffffffffffffffffff1681526020019081526020016000206000838152602001908152602001600020819055506001600082815260200190815260200160002060010160009054906101000a900473ffffffffffffffffffffffffffffffffffffffff1673ffffffffffffffffffffffffffffffffffffffff1663a9059cbb33846040518363ffffffff1660e01b8152600401610a7c9291906117f3565b602060405180830381600087803b158015610a9657600080fd5b505af1158015610aaa573d6000803e3d6000fd5b505050506040513d601f19601f82011682018060405250810190610ace9190611278565b505050565b6060600560008481526020019081526020016000206000836001811115610af657fe5b8152602001908152602001600020805480602002602001604051908101604052809291908181526020016000905b82821015610c0157838290600052602060002090600502016040518060c0016040529081600082015481526020016001820160009054906101000a900473ffffffffffffffffffffffffffffffffffffffff1673ffffffffffffffffffffffffffffffffffffffff1673ffffffffffffffffffffffffffffffffffffffff1681526020016001820160149054906101000a900460ff166001811115610bc557fe5b6001811115610bd057fe5b8152602001600282015481526020016003820154815260200160048201548152505081526020019060010190610b24565b50505050905092915050565b600073ffffffffffffffffffffffffffffffffffffffff166001600083815260200190815260200160002060010160009054906101000a900473ffffffffffffffffffffffffffffffffffffffff1673ffffffffffffffffffffffffffffffffffffffff161415610c7d57600080fd5b816001600083815260200190815260200160002060010160009054906101000a900473ffffffffffffffffffffffffffffffffffffffff1673ffffffffffffffffffffffffffffffffffffffff166370a08231336040518263ffffffff1660e01b8152600401610ced91906117a1565b60206040518083038186803b158015610d0557600080fd5b505afa158015610d19573d6000803e3d6000fd5b505050506040513d601f19601f82011682018060405250810190610d3d919061141d565b1015610d4857600080fd5b610dab82600360003373ffffffffffffffffffffffffffffffffffffffff1673ffffffffffffffffffffffffffffffffffffffff16815260200190815260200160002060008481526020019081526020016000205461114090919063ffffffff16565b600360003373ffffffffffffffffffffffffffffffffffffffff1673ffffffffffffffffffffffffffffffffffffffff1681526020019081526020016000206000838152602001908152602001600020819055506001600082815260200190815260200160002060010160009054906101000a900473ffffffffffffffffffffffffffffffffffffffff1673ffffffffffffffffffffffffffffffffffffffff166323b872dd3330856040518463ffffffff1660e01b8152600401610e72939291906117bc565b602060405180830381600087803b158015610e8c57600080fd5b505af1158015610ea0573d6000803e3d6000fd5b505050506040513d601f19601f82011682018060405250810190610ec49190611278565b505050565b610ed16110e8565b73ffffffffffffffffffffffffffffffffffffffff16610eef61075f565b73ffffffffffffffffffffffffffffffffffffffff1614610f45576040517f08c379a0000000000000000000000000000000000000000000000000000000008152600401610f3c90611902565b60405180910390fd5b600073ffffffffffffffffffffffffffffffffffffffff168173ffffffffffffffffffffffffffffffffffffffff161415610fb5576040517f08c379a0000000000000000000000000000000000000000000000000000000008152600401610fac90611882565b60405180910390fd5b8073ffffffffffffffffffffffffffffffffffffffff1660008054906101000a900473ffffffffffffffffffffffffffffffffffffffff1673ffffffffffffffffffffffffffffffffffffffff167f8be0079c531659141344cd1fd0a4f28419497f9722a3daafe3b4186f6b6457e060405160405180910390a3806000806101000a81548173ffffffffffffffffffffffffffffffffffffffff021916908373ffffffffffffffffffffffffffffffffffffffff16021790555050565b60045481565b60008083141561108b57600090506110e2565b600082840290508284828161109c57fe5b04146110dd576040517f08c379a00000000000000000000000000000000000000000000000000000000081526004016110d4906118e2565b60405180910390fd5b809150505b92915050565b600033905090565b600082821115611135576040517f08c379a000000000000000000000000000000000000000000000000000000000815260040161112c906118c2565b60405180910390fd5b818303905092915050565b60008082840190508381101561118b576040517f08c379a0000000000000000000000000000000000000000000000000000000008152600401611182906118a2565b60405180910390fd5b8091505092915050565b6000813590506111a481611aa2565b92915050565b6000815190506111b981611ab9565b92915050565b6000813590506111ce81611ad0565b92915050565b6000813590506111e381611ae7565b92915050565b6000813590506111f881611af7565b92915050565b60008151905061120d81611af7565b92915050565b60006020828403121561122557600080fd5b600061123384828501611195565b91505092915050565b6000806040838503121561124f57600080fd5b600061125d85828601611195565b925050602061126e858286016111bf565b9150509250929050565b60006020828403121561128a57600080fd5b6000611298848285016111aa565b91505092915050565b6000602082840312156112b357600080fd5b60006112c1848285016111bf565b91505092915050565b600080604083850312156112dd57600080fd5b60006112eb858286016111bf565b92505060206112fc85828601611195565b9150509250929050565b6000806040838503121561131957600080fd5b6000611327858286016111bf565b9250506020611338858286016111d4565b9150509250929050565b60008060006060848603121561135757600080fd5b6000611365868287016111bf565b9350506020611376868287016111e9565b9250506040611387868287016111e9565b9150509250925092565b600080600080608085870312156113a757600080fd5b60006113b5878288016111d4565b94505060206113c6878288016111bf565b93505060406113d7878288016111e9565b92505060606113e8878288016111e9565b91505092959194509250565b60006020828403121561140657600080fd5b6000611414848285016111e9565b91505092915050565b60006020828403121561142f57600080fd5b600061143d848285016111fe565b91505092915050565b6000806040838503121561145957600080fd5b6000611467858286016111e9565b9250506020611478858286016111bf565b9150509250929050565b600061148e83836116ed565b60c08301905092915050565b6114a381611a4d565b82525050565b6114b2816119e8565b82525050565b6114c1816119e8565b82525050565b60006114d2826119ae565b6114dc81856119c6565b93506114e78361199e565b8060005b838110156115185781516114ff8882611482565b975061150a836119b9565b9250506001810190506114eb565b5085935050505092915050565b61152e81611a06565b82525050565b61153d81611a06565b82525050565b61154c81611a5f565b82525050565b61155b81611a5f565b82525050565b600061156e6026836119d7565b91507f4f776e61626c653a206e6577206f776e657220697320746865207a65726f206160008301527f64647265737300000000000000000000000000000000000000000000000000006020830152604082019050919050565b60006115d4601b836119d7565b91507f536166654d6174683a206164646974696f6e206f766572666c6f7700000000006000830152602082019050919050565b6000611614601e836119d7565b91507f536166654d6174683a207375627472616374696f6e206f766572666c6f7700006000830152602082019050919050565b60006116546021836119d7565b91507f536166654d6174683a206d756c7469706c69636174696f6e206f766572666c6f60008301527f77000000000000000000000000000000000000000000000000000000000000006020830152604082019050919050565b60006116ba6020836119d7565b91507f4f776e61626c653a2063616c6c6572206973206e6f7420746865206f776e65726000830152602082019050919050565b60c0820160008201516117036000850182611768565b50602082015161171660208501826114a9565b5060408201516117296040850182611543565b50606082015161173c6060850182611525565b50608082015161174f6080850182611768565b5060a082015161176260a0850182611768565b50505050565b61177181611a43565b82525050565b61178081611a43565b82525050565b600060208201905061179b60008301846114b8565b92915050565b60006020820190506117b6600083018461149a565b92915050565b60006060820190506117d1600083018661149a565b6117de60208301856114b8565b6117eb6040830184611777565b949350505050565b6000604082019050611808600083018561149a565b6118156020830184611777565b9392505050565b6000602082019050818103600083015261183681846114c7565b905092915050565b60006020820190506118536000830184611534565b92915050565b600060408201905061186e6000830185611534565b61187b60208301846114b8565b9392505050565b6000602082019050818103600083015261189b81611561565b9050919050565b600060208201905081810360008301526118bb816115c7565b9050919050565b600060208201905081810360008301526118db81611607565b9050919050565b600060208201905081810360008301526118fb81611647565b9050919050565b6000602082019050818103600083015261191b816116ad565b9050919050565b60006020820190506119376000830184611777565b92915050565b600060c0820190506119526000830189611777565b61195f60208301886114b8565b61196c6040830187611552565b6119796060830186611534565b6119866080830185611777565b61199360a0830184611777565b979650505050505050565b6000819050602082019050919050565b600081519050919050565b6000602082019050919050565b600082825260208201905092915050565b600082825260208201905092915050565b60006119f382611a23565b9050919050565b60008115159050919050565b6000819050919050565b6000819050611a1e82611a95565b919050565b600073ffffffffffffffffffffffffffffffffffffffff82169050919050565b6000819050919050565b6000611a5882611a71565b9050919050565b6000611a6a82611a10565b9050919050565b6000611a7c82611a83565b9050919050565b6000611a8e82611a23565b9050919050565b60028110611a9f57fe5b50565b611aab816119e8565b8114611ab657600080fd5b50565b611ac2816119fa565b8114611acd57600080fd5b50565b611ad981611a06565b8114611ae457600080fd5b50565b60028110611af457600080fd5b50565b611b0081611a43565b8114611b0b57600080fd5b5056fea26469706673582212206c5aafb19083488171ac9db5bc4f09b9b11c93f0a88d8997308d5cdf7d34efdd64736f6c63430007000033",
  "immutableReferences": {},
  "source": "// SPDX-License-Identifier: MIT\r\npragma solidity >= 0.6.0 < 0.8.0;\r\npragma experimental ABIEncoderV2;\r\n\r\nimport \"./wallet.sol\";\r\n\r\n\r\ncontract Dex is Wallet {\r\n    using SafeMath for uint256;\r\n\r\n    enum Side {\r\n        BUY,\r\n        SELL   \r\n    }\r\n    \r\n    struct Order {\r\n        uint id;\r\n        address trader;\r\n        Side side;\r\n        bytes32 ticker;\r\n        uint amount;\r\n        uint price;\r\n    }\r\n\r\n    uint public nextOrderID = 0;\r\n\r\n    mapping(bytes32 => mapping(uint => Order[])) public orderBook;\r\n\r\n    function getOrderBook(bytes32 ticker, Side side) view public returns(Order[] memory) {\r\n        return orderBook[ticker][uint(side)];\r\n    }\r\n\r\n    function createLimitOrder(Side side, bytes32 ticker, uint amount, uint price) public {\r\n        if(side == Side.BUY) {\r\n            require(balances[msg.sender][\"ETH\"] >= amount.mul(price));\r\n        }\r\n        else if(side == Side.SELL) {\r\n            require(balances[msg.sender][ticker] >= amount);\r\n        }\r\n        Order[] storage orders = orderBook[ticker][uint(side)];\r\n        orders.push(\r\n            Order(nextOrderID, msg.sender, side, ticker, amount, price)\r\n            );\r\n        nextOrderID++;\r\n        } \r\n\r\n}\r\n",
  "sourcePath": "C:/Users/ub3rm/Course/ethereum201/DEX/contracts/dex.sol",
  "compiler": {
    "name": "solc",
    "version": "0.7.0+commit.9e61f92b.Emscripten.clang"
  },
  "schemaVersion": "3.3.4",
  "updatedAt": "2021-03-30T02:05:18.312Z",
  "devdoc": {
    "kind": "dev",
    "methods": {
      "owner()": {
        "details": "Returns the address of the current owner."
      },
      "renounceOwnership()": {
        "details": "Leaves the contract without owner. It will not be possible to call `onlyOwner` functions anymore. Can only be called by the current owner. NOTE: Renouncing ownership will leave the contract without an owner, thereby removing any functionality that is only available to the owner."
      },
      "transferOwnership(address)": {
        "details": "Transfers ownership of the contract to a new account (`newOwner`). Can only be called by the current owner."
      }
    },
    "version": 1
  },
  "userdoc": {
    "kind": "user",
    "methods": {},
    "version": 1
  }
}